:1000000012C02CC02BC02AC029C028C027C026C0BF
:1000100025C078C153C022C021C020C079C01EC0F5
:100020001DC01CC01BC011241FBECFE5D4E0DEBF25
:10003000CDBF10E0A0E6B0E0E6EBF3E002C0059033
:100040000D92A836B107D9F710E0A8E6B0E001C0DC
:100050001D92A837B107E1F76AD0ABC1D1CF81B308
:10006000806F81BB82B38F7082BB84B38C6384BB8F
:1000700082B3837C82BB82B3806382BB82B38F7383
:1000800082BB85B3846285BB85B3877E85BB0895BB
:1000900087B1806C87B93D9A339A86B1876886B9F3
:1000A000369A0895BC9A8DB1806C8DB9089583B746
:1000B000816083BF89B7816089BF08951F920F92C5
:1000C0000FB60F9211248F93EF93FF93E09174007A
:1000D000F0E08FB1E259FF4F80838091740085304A
:1000E00030F4809174008F5F8093740002C010928E
:1000F0007400E0917400F0E0E859FF4F80818FB9FF
:10010000FF91EF918F910F900FBE0F901F90189558
:100110001F920F920FB60F9211248F9385B1809387
:100120006D008F910F900FBE0F901F90189597DF65
:10013000BEDFB8DFADDF7894809175008430E1F7E1
:10014000369A10927500F8CF693018F4662319F0CA
:1001500003C061E001C068E08823D1F5653021F17A
:10016000663038F46330B1F06430D0F4623039F482
:100170000CC0673019F16730E8F0683029F192B3AC
:10018000906392BB92B39F7303C0959A92B39F7290
:1001900092BB59C092B3906692BB92B39F76F8CF50
:1001A000969A92B39F74F4CF92B3906C92BB92B331
:1001B0009F7CEECF979A92B39F78EACF92B39069E3
:1001C00092BB92B39F79E4CF949A92B39F71E0CFA0
:1001D0008130C9F5653019F1663038F46330A9F023
:1001E0006430C8F4623039F40CC0673011F1673004
:1001F000E0F0683021F195B3946295BB95B3977E9A
:1002000021C0AA9A95B3977C1DC095B3946195BB04
:1002100095B3977D17C0AC9A95B3937D13C095B3F2
:10022000986195BB95B39B7D0DC0AB9A95B39B7CB4
:1002300009C095B3986295BB95B39B7E03C0AD9AF8
:1002400095B3937E95BBE82FF0E0E05AFF4F6083B3
:1002500008950F931F93082F162F282F30E0613039
:1002600031F4205A3F4FF90160816F5F05C0205A79
:100270003F4FF90160816150802F66DF002351F507
:10028000112349F480916200909163000097C1F4BA
:1002900080E991E01AC0113099F480916200909148
:1002A0006300F1E080399F0729F4109263001092F7
:1002B000620025C08091620090916300019605C0A4
:1002C0008091620090916300019790936300809306
:1002D000620015C0013099F4112331F4809164005B
:1002E00090916500019707C0113049F48091640036
:1002F00090916500019690936500809364001F9132
:100300000F9108951F920F920FB60F9211242F9301
:100310003F934F935F936F937F938F939F93AF938D
:10032000BF93EF93FF93209176004091660030E0F9
:100330008FEF90E0841B9109821793071CF41092B1
:10034000760005C0809176008F5F809376002091C3
:1003500077004091670030E08FEF90E0841B9109B7
:10036000821793071CF41092770005C080917700E4
:100370008F5F8093770080917600882311F460E08E
:1003800068DF80917700882319F481E060E061DF05
:10039000FF91EF91BF91AF919F918F917F916F915D
:1003A0005F914F913F912F910F900FBE0F901F9033
:0603B0001895F894FFCF40
:0803B600010100000500646470
:00000001FF
