:1000000012C02CC02BC02AC029C028C027C026C0BF
:1000100025C0D4C14DC022C021C020C073C01EC0A5
:100020001DC01CC01BC011241FBECFE5D4E0DEBF25
:10003000CDBF10E0A0E6B0E0EAEFF4E002C005902A
:100040000D92A436B107D9F710E0A4E6B0E001C0E4
:100050001D92A438B107E1F7B4D04DC2D1CF81B31E
:10006000806F81BB84B38C6384BB82B3806682BBA8
:1000700082B38F7682BB85B3886185BB85B38B7D68
:1000800085BB089587B1806C87B93D9A339A86B154
:10009000876886B9369A0895BC9A8DB1806C8DB9FF
:1000A000089583B7826083BF89B7816089BF08954F
:1000B0001F920F920FB60F9211248F93EF93FF931D
:1000C000E0917F00F0E08FB1EF58FF4F8083809187
:1000D0007F00853030F480917F008F5F80937F00B8
:1000E00002C010927F00E0917F00F0E0E559FF4FE1
:1000F00080818FB9FF91EF918F910F900FBE0F907C
:100100001F9018951F920F920FB60F9211248F9384
:1001100085B18093700080917000809368008F910A
:100120000F900FBE0F901F901895109265001092BF
:10013000640010926700109266001092770081E0D0
:10014000809362001092790010927A0010928200DF
:1001500010928300089581E0809382008093830051
:100160000895809177008695869586958F5F809318
:1001700062008EE190E0909365008093640082E0DD
:10018000809383000895809177008E5F809377003D
:100190008CE390E0909367008093660083E0809307
:1001A00078000895809177008F5F809377008EE1CB
:1001B00090E0909367008093660083E080937800DE
:1001C00008951F934CDF6DDF67DF5CDF78941CEDD3
:1001D00080918200813009F045C0809171008130AA
:1001E00021F0809172008130A9F580917B0090917F
:1001F0007C00A0917D00B0917E000097A105B10523
:10020000A9F4AFDF80917100813011F4BCDF05C02B
:1002100080917200813009F4C5DF80917B0090915C
:100220007C00A0917D00B0917E0008C0803E23E953
:10023000920724E0A20720E0B20761F00196A11D19
:10024000B11D80937B0090937C00A0937D00B093C0
:100250007E0008C010927B0010927C0010927D00FE
:1002600010927E0080918000843009F0B1CF80919F
:100270007600813031F480918200882311F46BDFA5
:1002800009C080917600823039F4809182008130FB
:1002900019F44BDF109276008091820080936B00FE
:1002A0008091830080936C008091620080936D0048
:1002B0008091770080936E0080917A0080936F0028
:1002C000369A809168008D3D18F01093690006C041
:1002D0008091680080916800809369008091680037
:1002E0008D3D18F010936A0006C0809168008091DF
:1002F000680080936A00109280006ACF653018F41D
:10030000662319F003C061E001C064E08823F9F4BA
:10031000633089F06430A9F0623031F092B39066B6
:1003200092BB92B39F7605C092B3906392BB92B397
:100330009F7392BB2CC092B3906992BB92B39F798A
:10034000F8CF92B3906C92BB92B39F7CF2CF813086
:10035000F1F4633081F06430A1F0623031F095B394
:10036000986195BB95B39B7D11C095B39C6095BB7F
:1003700095B39F7C0BC095B3946295BB95B3977E64
:1003800005C095B3906395BB95B3937F95BBE82F5C
:10039000F0E0E05AFF4F60830895282F30E061308D
:1003A00031F4205A3F4FF90160816F5F05C0205A38
:1003B0003F4FF90160816150A1DF08951F920F92B4
:1003C0000FB60F9211242F933F934F935F936F9328
:1003D0007F938F939F93AF93BF93EF93FF9320915E
:1003E00081004091690030E08FEF90E0841B91091B
:1003F000821793071CF41092810005C08091810040
:100400008F5F8093810080918100882309F05DC017
:1004100080918300813039F480E061E0BEDF81E0CB
:1004200061E0BBDF52C0823031F5809163008823E8
:1004300009F046C08091640090916500009779F0C2
:1004400080E060E0AADF81E060E0A7DF80916400E7
:10045000909165000197909365008093640080916E
:10046000640090916500009781F58FE080936300B0
:100470008091780022C0833041F580916300882309
:10048000F9F48091660090916700009761F081E037
:1004900061E083DF809166009091670001979093FF
:1004A00067008093660080916600909167000097D6
:1004B00061F48EE18093630081E08093830005C046
:1004C00080916300815080936300809180008F5FF2
:1004D00080938000FF91EF91BF91AF919F918F9199
:1004E0007F916F915F914F913F912F910F900FBE30
:0A04F0000F901F901895F894FFCFAD
:0404FA000101011EDD
:00000001FF
