:1000000012C02CC02BC02AC029C028C027C026C0BF
:1000100025C0C1C153C022C021C020C079C01EC0AC
:100020001DC01CC01BC011241FBECFE5D4E0DEBF25
:10003000CDBF10E0A0E6B0E0ECE3F4E002C0059034
:100040000D92A636B107D9F710E0A6E6B0E001C0E0
:100050001D92A038B107E1F76ED0EEC1D1CF81B3C8
:10006000806F81BB82B38F7082BB84B38C6384BB8F
:1000700082B3837C82BB82B3806382BB82B38F7383
:1000800082BB85B3886185BB85B38B7D85BB0895B5
:1000900087B1806C87B93D9A339A86B1876886B9F3
:1000A000369A0895BC9A8DB1806C8DB9089583B746
:1000B000826083BF89B7816089BF08951F920F92C4
:1000C0000FB60F9211248F93EF93FF93E0917B0073
:1000D000F0E08FB1E159FF4F808380917B00853044
:1000E00030F480917B008F5F80937B0002C0109280
:1000F0007B00E0917B00F0E0E759FF4F80818FB9F2
:10010000FF91EF918F910F900FBE0F901F90189558
:100110001F920F920FB60F9211248F9385B1809387
:100120006E0080916E00809366008F910F900FBEDD
:100130000F901F90189593DFBADFB4DFA9DF789492
:100140005CED60917E008091790090917A00409101
:100150007F00309176002091750026952695269592
:10016000613001F570916F00713021F07091700075
:100170007130C1F4009739F430916F00313049F09B
:100180003091700006C07BE0883B970729F001960C
:1001900005C0322F42E002C080E090E010926F0074
:1001A0001092700070917C007430D1F690937A00B8
:1001B0008093790040937F003093760080917400A3
:1001C000813049F490917E00992329F480937E0038
:1001D00080937F000CC080917400823051F4809134
:1001E0007E00813031F410927E0010927F001092D8
:1001F000740080917E008093690080917F008093DD
:100200006A008091760080936C00809178008093E2
:100210006D00369A809166008D3D18F0509367000E
:1002200006C080916600809166008093670080918F
:1002300066008D3D18F05093680006C080916600FE
:10024000809166008093680010927C007ACF6530C0
:1002500018F4662319F003C061E001C064E088234C
:10026000D9F4633071F0643099F0623031F092B3B8
:10027000906392BB92B39F7309C0959A92B39F7299
:1002800005C092B3906692BB92B39F7692BB24C096
:10029000969A92B39F74FACF8130F1F4633081F073
:1002A0006430A1F0623031F095B3986195BB95B39D
:1002B0009B7D11C095B39C6095BB95B39F7C0BC093
:1002C00095B3946295BB95B3977E05C095B3906343
:1002D00095BB95B3937F95BBE82FF0E0E05AFF4FB5
:1002E000608308950F931F93082F162F282F30E057
:1002F000613031F4205A3F4FF90160816F5F05C0D2
:10030000205A3F4FF90160816150802FA0DF002308
:1003100051F5112349F48091620090916300009798
:10032000C1F480E991E01AC0113099F48091620023
:1003300090916300F1E080399F0729F410926300E7
:100340001092620025C08091620090916300019636
:1003500005C08091620090916300019790936300C3
:100360008093620015C0013099F4112331F480911B
:10037000640090916500019707C0113049F48091A5
:1003800064009091650001969093650080936400ED
:100390001F910F9108951F920F920FB60F92112483
:1003A0002F933F934F935F936F937F938F939F937D
:1003B000AF93BF93EF93FF9320917D00409167002F
:1003C00030E08FEF90E0841B9109821793071CF4B3
:1003D00010927D0005C080917D008F5F80937D002D
:1003E00080917D00882391F480917F00813031F4E9
:1003F00080E060E077DF81E060E007C0823031F4C8
:1004000080E061E06FDF81E061E06CDF80917C0083
:100410008F5F80937C00FF91EF91BF91AF919F918F
:100420008F917F916F915F914F913F912F910F909D
:0C0430000FBE0F901F901895F894FFCF9E
:06043C00010100000500B3
:00000001FF
