:1000000012C02CC02BC02AC029C028C027C026C0BF
:1000100025C0D8C153C022C021C020C079C01EC095
:100020001DC01CC01BC011241FBECFE5D4E0DEBF25
:10003000CDBF10E0A0E6B0E0E8EDF4E002C005902E
:100040000D92A436B107D9F710E0A4E6B0E001C0E4
:100050001D92A438B107E1F7BCD03CC2D1CF81B327
:10006000806F81BB82B38F7082BB84B38C6384BB8F
:1000700082B3837C82BB82B3806382BB82B38F7383
:1000800082BB85B3886185BB85B38B7D85BB0895B5
:1000900087B1806C87B93D9A339A86B1876886B9F3
:1000A000369A0895BC9A8DB1806C8DB9089583B746
:1000B000826083BF89B7816089BF08951F920F92C4
:1000C0000FB60F9211248F93EF93FF93E0917F006F
:1000D000F0E08FB1EF58FF4F808380917F00853033
:1000E00030F480917F008F5F80937F0002C0109278
:1000F0007F00E0917F00F0E0E559FF4F80818FB9EC
:10010000FF91EF918F910F900FBE0F901F90189558
:100110001F920F920FB60F9211248F9385B1809387
:10012000700080917000809368008F910F900FBED7
:100130000F901F9018951092650010926400109215
:100140006700109266001092770081E08093620051
:100150001092790010927A0010928200109283001F
:10016000089581E0809382008093830008958091B8
:1001700077008695869586958F5F8093620090E3E1
:10018000899FC0011124909365008093640082E0F0
:10019000809383000895809177008E5F809377002D
:1001A0008CE390E0909367008093660083E08093F7
:1001B00078000895809177008F5F809377008EE1BB
:1001C00090E0909367008093660083E080937800CE
:1001D00008951F9344DF6BDF65DF5ADF78941CEDD1
:1001E00080918200813009F045C08091710081309A
:1001F00021F0809172008130A9F580917B0090916F
:100200007C00A0917D00B0917E000097A105B10512
:10021000A9F4ADDF80917100813011F4BCDF05C01D
:1002200080917200813009F4C5DF80917B0090914C
:100230007C00A0917D00B0917E0008C0803E23E943
:10024000920724E0A20720E0B20761F00196A11D09
:10025000B11D80937B0090937C00A0937D00B093B0
:100260007E0008C010927B0010927C0010927D00EE
:1002700010927E0080918000843009F0B1CF80918F
:100280007600813031F480918200882311F469DF97
:1002900009C080917600823039F4809182008130EB
:1002A00019F449DF109276008091820080936B00F0
:1002B0008091830080936C008091620080936D0038
:1002C0008091770080936E0080917A0080936F0018
:1002D000369A809168008D3D18F01093690006C031
:1002E0008091680080916800809369008091680027
:1002F0008D3D18F010936A0006C0809168008091CF
:10030000680080936A00109280006ACF653018F40C
:10031000662319F003C061E001C064E08823D9F4CA
:10032000633079F0643099F0623031F092B39063C9
:1003300092BB92B39F7303C0959A92B39F7292BB84
:100340002AC092B3906692BB92B39F76F8CF969AEA
:1003500092B39F74F4CF8130F1F4633081F0643054
:10036000A1F0623031F095B3986195BB95B39B7D58
:1003700011C095B39C6095BB95B39F7C0BC095B3A2
:10038000946295BB95B3977E05C095B3906395BB7A
:1003900095B3937F95BBE82FF0E0E05AFF4F608361
:1003A0000895282F30E0613031F4205A3F4FF90191
:1003B00060816F5F05C0205A3F4FF9016081615035
:1003C000A5DF08951F920F920FB60F9211242F935D
:1003D0003F934F935F936F937F938F939F93AF93CD
:1003E000BF93EF93FF93209181004091690030E02B
:1003F0008FEF90E0841B9109821793071CF41092F1
:10040000810005C0809181008F5F80938100809181
:100410008100882309F048C080918300813039F43D
:1004200080E060E0BEDF81E060E0BBDF3DC08230A5
:10043000F1F48091640090916500009779F080E07C
:1004400061E0AFDF81E061E0ACDF8091640090911A
:10045000650001979093650080936400809164002B
:1004600090916500009701F5809178001BC0833062
:10047000D9F48091660090916700009761F081E067
:1004800061E08FDF80916600909167000197909303
:1004900067008093660080916600909167000097E6
:1004A00019F481E080938300809180008F5F8093B6
:1004B0008000FF91EF91BF91AF919F918F917F91BC
:1004C0006F915F914F913F912F910F900FBE0F90C1
:0804D0001F901895F894FFCF6E
:0404D800010101001D
:00000001FF
