:1000000012C02CC02BC02AC029C028C027C026C0BF
:1000100025C0A2C153C022C021C020C079C01EC0CB
:100020001DC01CC01BC011241FBECFE5D4E0DEBF25
:10003000CDBF10E0A0E6B0E0EAE5F4E002C0059034
:100040000D92A436B107D9F710E0A4E6B0E001C0E4
:100050001D92A138B107E1F78AD0FDC1D1CF81B39C
:10006000806F81BB82B38F7082BB84B38C6384BB8F
:1000700082B3837C82BB82B3806382BB82B38F7383
:1000800082BB85B3886185BB85B38B7D85BB0895B5
:1000900087B1806C87B93D9A339A86B1876886B9F3
:1000A000369A0895BC9A8DB1806C8DB9089583B746
:1000B000826083BF89B7816089BF08951F920F92C4
:1000C0000FB60F9211248F93EF93FF93E0917C0072
:1000D000F0E08FB1EF58FF4F808380917C00853036
:1000E00030F480917C008F5F80937C0002C010927E
:1000F0007C00E0917C00F0E0E559FF4F80818FB9F2
:10010000FF91EF918F910F900FBE0F901F90189558
:100110001F920F920FB60F9211248F9385B1809387
:10012000700080917000809368008F910F900FBED7
:100130000F901F9018951092650010926400109215
:100140006700109266001092770081E08093620051
:10015000109278001092790010927F001092800027
:10016000089581E080937F008093800008950F932D
:100170001F9375DF9CDF96DF8BDF789400E31CED27
:1001800070917F0080917A0090917B005091620085
:1001900040918000609177006695669566956F5FE7
:1001A000609F90011124713061F5E0917100E130A0
:1001B00021F0E0917200E13021F5009799F430933D
:1001C000670020936600409166005091670050934D
:1001D00065004093640040917100413049F04091C6
:1001E000720006C0EBE0883B9E0729F0019605C02F
:1001F000562F42E002C080E090E010927100109211
:100200007200E0917D00E43071F690937B00809362
:100210007A00509362004093800080917600813094
:1002200031F480917F00882311F49BDF09C0809115
:100230007600823039F480917F00813019F47BDFC1
:100240001092760080917F0080936B0080918000F7
:1002500080936C008091620080936E0080917900A1
:1002600080936F00369A809168008D3D18F010934E
:10027000690006C0809168008091680080936900E1
:10028000809168008D3D18F010936A0006C080913F
:1002900068008091680080936A0010927D0070CFA2
:1002A000653018F4662319F003C061E001C064E012
:1002B0008823D9F4633079F0643099F0623031F0FA
:1002C00092B3906392BB92B39F7303C0959A92B31B
:1002D0009F7292BB2AC092B3906692BB92B39F76F4
:1002E000F8CF969A92B39F74F4CF8130F1F46330D3
:1002F00081F06430A1F0623031F095B3986195BB24
:1003000095B39B7D11C095B39C6095BB95B39F7CC5
:100310000BC095B3946295BB95B3977E05C095B31A
:10032000906395BB95B3937F95BBE82FF0E0E05ABF
:10033000FF4F60830895282F30E0613031F4205A58
:100340003F4FF90160816F5F05C0205A3F4FF901AF
:1003500060816150A5DF08951F920F920FB60F9232
:1003600011242F933F934F935F936F937F938F93BA
:100370009F93AF93BF93EF93FF9320917E004091A3
:10038000690030E08FEF90E0841B9109821793079A
:100390001CF410927E0005C080917E008F5F8093D8
:1003A0007E0080917E00882309F03FC0809180000C
:1003B000813039F480E060E0BEDF81E060E0BBDFE7
:1003C00034C0823091F5809164009091650000976F
:1003D00061F080E061E0AFDF8091640090916500A2
:1003E00001979093650080936400809166009091DE
:1003F0006700009761F081E061E09DDF8091660019
:1004000090916700019790936700809366008091B8
:10041000640090916500009741F48091660090918E
:100420006700009711F41092800080917D008F5F2B
:1004300080937D00FF91EF91BF91AF919F918F913C
:100440007F916F915F914F913F912F910F900FBED0
:0A0450000F901F901895F894FFCF4D
:04045A00010101009B
:00000001FF
