:1000000012C02CC02BC014C129C028C0EBC026C010
:1000100025C002C391C022C021C020C0B7C01EC0ED
:100020001DC01CC01BC011241FBECFE5D4E0DEBF25
:10003000CDBF10E0A0E6B0E0E8E7F9E002C005902F
:100040000D92A037B107D9F710E0A0E7B0E001C0EA
:100050001D92A238B107E1F74BD18CC4D1CF81B347
:100060008F6081BB82B3807F82BB089581B3806F34
:1000700081BB82B38F7082BB84B38C6384BB82B339
:10008000837C82BB82B3806382BB82B38F7382BB6B
:1000900085B38C6085BB85B38F7C85BB089587B1A4
:1000A000806C87B93D9A339A86B1876886B9369A4B
:1000B0000895BC9A8DB1806C8DB9089585B588601E
:1000C00085BD85B5866085BD83E983BD89B78068B8
:1000D00089BF08958EB588608EBD89B7806189BF5C
:1000E000089583B7816083BF89B7816089BF089510
:1000F000E0917100F0E0EE0FFF1FE05AFF4F8081AA
:1001000091819BBD8ABD8EB581608EBD08958EB5EF
:100110008E7F8EBD1DBC1CBC88B78F7E88BF809132
:100120007100843030F4809171008F5F8093710092
:1001300008951092710008951F920F920FB60F92BA
:1001400011248F93EF93FF93E0917E00F0E08FB145
:10015000E858FF4F808380917E00853030F4809195
:100160007E008F5F80937E0002C010927E00E0913F
:100170007E00F0E0EE58FF4F80818FB9FF91EF9144
:100180008F910F900FBE0F901F9018951F920F9296
:100190000FB60F9211248F9385B1809377008091D1
:1001A0007700809370008F910F900FBE0F901F907B
:1001B0001895813051F0813028F0823049F0833039
:1001C00081F40BC082B391E005C082B392E002C01B
:1001D00082B394E0892782BB089582B398E089278F
:1001E00082BB08951F920F920FB60F9211242F9386
:1001F0003F934F935F936F937F938F939F93AF93AF
:10020000BF93EF93FF9380917100D3DF80DFFF9165
:10021000EF91BF91AF919F918F917F916F915F917E
:100220004F913F912F910F900FBE0F901F901895F7
:100230001F920F920FB60F9211242F933F934F935B
:100240005F936F937F938F939F93AF93BF93EF933E
:10025000FF9380917100ADDF80917F008F5F80936D
:100260007F0046DFFF91EF91BF91AF919F918F91FA
:100270007F916F915F914F913F912F910F900FBEA2
:100280000F901F9018956130C1F4E82FF0E0EE0F49
:10029000FF1FE05AFF4F808191812AE48833920743
:1002A00030F5208131818091700090E0815A9F4F1C
:1002B000820F931F9183808308956623C1F4E82FF2
:1002C000F0E0EE0FFF1FE05AFF4F8081918124E1A3
:1002D0008135920760F0208131814091700081EA80
:1002E0009FEF841B9109820F931F91838083089550
:1002F000CF92DF92EF92FF920F931F93CF93DF93F2
:10030000AEDEB4DEDBDEE6DEECDED3DEC8DE789425
:10031000C5E4D0E004E610E065E0F62E54E6E52EF4
:100320004FE0D42E3BE9C32E80917F008430E1F76B
:1003300080917C00813031F480E060E0A4DF81E0D6
:1003400061E009C080917C00823031F480E061E09E
:100350009ADF81E060E097DF80917A00813031F4AC
:1003600082E060E090DF83E060E008C080917A0086
:10037000823029F461E087DF83E061E084DF60910F
:100380006A0070916B0080E090E0EFD12DEC3CECC6
:100390004CEC5DE350D2BDD160937200809162005D
:1003A000909163008E519441BE01D0D2609373004E
:1003B00080916C0090916D00B801C8D26093740078
:1003C00080916400909165008E519441BE01BED22F
:1003D00060937500369A809170008C3918F0C09245
:1003E0006E000BC0809170008F3018F4D0926E00B8
:1003F00004C08091700080936E00809170008536FB
:1004000018F0E0926F000BC0809170008F3018F4EC
:10041000F0926F0004C08091700080936F00109282
:100420007F0082CF693C70F4E82FF0E085E4689F9C
:10043000B0011124605B7B4EEE0FFF1FE05AFF4FAF
:10044000718360830895E82FF0E0605B7B4EEE0FD0
:10045000FF1FE05AFF4F718360830895693018F4DD
:10046000662319F003C061E001C068E08823D1F57C
:10047000653021F1663038F46330B1F06430D0F487
:10048000623039F40CC0673019F16730E8F0683039
:1004900029F192B3906392BB92B39F7303C0959A74
:1004A00092B39F7292BB59C092B3906692BB92B3C3
:1004B0009F76F8CF969A92B39F74F4CF92B3906CD4
:1004C00092BB92B39F7CEECF979A92B39F78EACF7C
:1004D00092B3906992BB92B39F79E4CF949A92B30E
:1004E0009F71E0CF8130C9F5653019F1663038F47D
:1004F0006330A9F06430C8F4623039F40CC067305E
:1005000011F16730E0F0683021F195B39C6095BB44
:1005100095B39F7C21C0AB9A95B39B7C1DC095B3CE
:10052000986195BB95B39B7D17C0AC9A95B3937DAD
:1005300013C095B3906395BB95B3937F0DC0AD9AEF
:1005400095B3937E09C095B3946295BB95B3977E9E
:1005500003C0AA9A95B3977C95BBE82FF0E0E859C1
:10056000FF4F608308950F931F93082F162F282F96
:1005700030E0613031F428593F4FF90160816F5FFD
:1005800005C028593F4FF90160816150802F66DF17
:10059000002351F5112349F480916A0090916B007A
:1005A0000097C1F480E991E01AC0113099F480916C
:1005B0006A0090916B00F1E080399F0729F4109256
:1005C0006B0010926A0025C080916A0090916B00C8
:1005D000019605C080916A0090916B0001979093FD
:1005E0006B0080936A0015C0013099F4112331F437
:1005F00080916C0090916D00019707C0113049F413
:1006000080916C0090916D00019690936D008093A5
:100610006C001F910F9108951F920F920FB60F92C9
:1006200011242F933F934F935F936F937F938F93F7
:100630009F93AF93BF93EF93FF93209180004091DE
:100640006E0030E08FEF90E0841B910982179307D2
:100650001CF41092800005C0809180008F5F809311
:1006600080002091810040916F0030E08FEF90E09A
:10067000841B9109821793071CF41092810005C016
:10068000809181008F5F809381008091800088231A
:1006900071F480917800813019F480E060E006C048
:1006A00080917800823019F480E061E05CDF809115
:1006B00081008823E9F480917B00813051F480919E
:1006C0006C0090916D008230910590F081E060E0C7
:1006D0000EC080917B00823059F480916C00909123
:1006E0006D002CE98034920718F481E061E03BDF73
:1006F000FF91EF91BF91AF919F918F917F916F91FA
:100700005F914F913F912F910F900FBE0F901F90CF
:10071000189570D088F09F5790F0B92F9927B7514E
:10072000A0F0D1F0660F771F881F991F1AF0BA95B5
:10073000C9F712C0B13081F077D0B1E0089574C02C
:10074000672F782F8827B85F39F0B93FCCF38695AB
:1007500077956795B395D9F73EF490958095709508
:1007600061957F4F8F4F9F4F0895E89409C097FB85
:100770003EF490958095709561957F4F8F4F9F4F78
:100780009923A9F0F92F96E9BB279395F6958795BC
:1007900077956795B795F111F8CFFAF4BB0F11F47F
:1007A00060FF1BC06F5F7F4F8F4F9F4F16C0882326
:1007B00011F096E911C0772321F09EE8872F762F5C
:1007C00005C0662371F096E8862F70E060E02AF09D
:1007D0009A95660F771F881FDAF7880F9695879589
:1007E00097F9089557FD9058440F551F59F05F3FF2
:1007F00071F04795880F97FB991F61F09F3F79F043
:1008000087950895121613061406551FF2CF4695C4
:10081000F1DF08C0161617061806991FF1CF869546
:100820007105610508940895E894BB27662777272A
:10083000CB0197F908950BD078C069D028F06ED01D
:1008400018F0952309F05AC05FC01124EECFCADF1B
:10085000A0F3959FD1F3950F50E0551F629FF001D3
:10086000729FBB27F00DB11D639FAA27F00DB11D2C
:10087000AA1F649F6627B00DA11D661F829F2227B5
:10088000B00DA11D621F739FB00DA11D621F839F3C
:10089000A00D611D221F749F3327A00D611D231F12
:1008A000849F600D211D822F762F6A2F11249F5760
:1008B00050408AF0E1F088234AF0EE0FFF1FBB1F83
:1008C000661F771F881F91505040A9F79E3F510522
:1008D00070F014C0AACF5F3FECF3983EDCF386952E
:1008E00077956795B795F795E7959F5FC1F7FE2BCD
:1008F000880F911D9695879597F9089597F99F67A9
:1009000080E870E060E008959FEF80EC0895002497
:100910000A941616170618060906089500240A9464
:1009200012161306140605060895092E0394000CEA
:1009300011F4882352F0BB0F40F4BF2B11F460FF79
:1009400004C06F5F7F4F8F4F9F4F0895AA1BBB1B43
:1009500051E107C0AA1FBB1FA617B70710F0A61BBF
:10096000B70B881F991F5A95A9F780959095BC01E0
:08097000CD010895F894FFCFBA
:10097800442F442F442F442F0101000005006464D4
:00000001FF
