:1000000012C02CC02BC02AC029C028C027C026C0BF
:1000100025C086C153C022C021C020C079C01EC0E7
:100020001DC01CC01BC011241FBECFE5D4E0DEBF25
:10003000CDBF10E0A0E6B0E0E8ECF3E002C0059030
:100040000D92A636B107D9F710E0A6E6B0E001C0E0
:100050001D92AF37B107E1F76ED0B4C1D1CF81B3F4
:10006000806F81BB82B38F7082BB84B38C6384BB8F
:1000700082B3837C82BB82B3806382BB82B38F7383
:1000800082BB85B3886185BB85B38B7D85BB0895B5
:1000900087B1806C87B93D9A339A86B1876886B9F3
:1000A000369A0895BC9A8DB1806C8DB9089583B746
:1000B000826083BF89B7816089BF08951F920F92C4
:1000C0000FB60F9211248F93EF93FF93E0917A0074
:1000D000F0E08FB1E159FF4F808380917A00853045
:1000E00030F480917A008F5F80937A0002C0109282
:1000F0007A00E0917A00F0E0E759FF4F80818FB9F4
:10010000FF91EF918F910F900FBE0F901F90189558
:100110001F920F920FB60F9211248F9385B1809387
:100120006E0080916E00809366008F910F900FBEDD
:100130000F901F90189593DFBADFB4DFA9DF789492
:100140008CED90917D00913069F490916F00913029
:1001500019F410926F0006C090917000913011F464
:100160001092700090917B00983259F79091740032
:10017000913021F420917D00222341F09091740070
:10018000923041F420917D00213021F490937D0044
:10019000109274009091790090936A00369A909131
:1001A00066009D3D18F08093670006C09091660040
:1001B0009091660090936700909166009D3D18F0C5
:1001C0008093680006C090916600909166009093BD
:1001D000680010927B00B5CF653018F4662319F0E3
:1001E00003C061E001C064E08823D9F4633071F09A
:1001F000643099F0623031F092B3906392BB92B365
:100200009F7309C0959A92B39F7205C092B390668E
:1002100092BB92B39F7692BB24C0969A92B39F747E
:10022000FACF8130F1F4633081F06430A1F06230B4
:1002300031F095B3986195BB95B39B7D11C095B393
:100240009C6095BB95B39F7C0BC095B3946295BBA6
:1002500095B3977E05C095B3906395BB95B3937F97
:1002600095BBE82FF0E0E05AFF4F608308950F93AD
:100270001F93082F162F282F30E0613031F4205AB9
:100280003F4FF90160816F5F05C0205A3F4FF90170
:1002900060816150802FA0DF002351F5112349F4C4
:1002A00080916200909163000097C1F480E991E031
:1002B0001AC0113099F48091620090916300F1E0CE
:1002C00080399F0729F4109263001092620025C0C4
:1002D0008091620090916300019605C08091620058
:1002E000909163000197909363008093620015C022
:1002F000013099F4112331F48091640090916500EC
:10030000019707C0113049F4809164009091650015
:10031000019690936500809364001F910F9108955A
:100320001F920F920FB60F9211242F933F934F936A
:100330005F936F937F938F939F93AF93BF93EF934D
:10034000FF9320917C004091670030E08FEF90E0B8
:10035000841B9109821793071CF410927C0005C03E
:1003600080917C008F5F80937C0080917C0088234B
:1003700099F460E07CDF81E060E079DF80917E00CD
:10038000882351F080917E00813031F080917E0091
:10039000833011F080917E0080917B008F5F80938D
:1003A0007B00FF91EF91BF91AF919F918F917F91D2
:1003B0006F915F914F913F912F910F900FBE0F90D2
:0803C0001F901895F894FFCF7F
:0603C80001010000050028
:00000001FF
