:1000000012C02CC02BC056C029C028C027C026C093
:1000100025C024C023C0A1C2C1C220C01FC01EC0B1
:100020001DC01CC01BC011241FBECFE5D4E0DEBF25
:10003000CDBF10E0A0E6B0E0ECE8F6E002C005902D
:100040000D92A03BB107D9F710E0A0EBB0E001C0E2
:100050001D92A83FB107E1F7FCD016C3D1CF85B5FB
:10006000886085BD85B5866085BD84E283BD89B71E
:10007000806889BF089584B3807E84BB85B38F6117
:1000800085BB089587B38C7F87BB88B3836088BBAB
:10009000089587B38C6687BBC29A8DB180658DB990
:1000A0000895C6980895C69A08958FB9779BFECF94
:1000B0008FB108951F920F920FB60F9211242F93B4
:1000C0003F934F935F936F937F938F939F93AF93E0
:1000D000BF93CF93DF93EF93FF93E3DF8091C20051
:1000E000C82FD0E0E091C200F0E0E055FF4F8081E2
:1000F000DCDFCA54DF4F8883D6DF8091C2008530B1
:1001000030F48091C2008F5F8093C20002C01092D1
:10011000C2008091C1008F5F8093C100FF91EF9179
:10012000DF91CF91BF91AF919F918F917F916F910F
:100130005F914F913F912F910F900FBE0F901F90A5
:1001400018957CD180E062E072D180E690E030D1F9
:1001500081E063E06CD18DE690E02AD108956ED104
:1001600080E060E064D188E790E022D180E064E044
:100170005ED18091B000813019F48DE790E009C024
:100180008091B100813019F48FE790E002C081E8DE
:1001900090E00ED180E066E04AD183E890E008D19B
:1001A00080E06AE044D181E890E002D181E060E043
:1001B0003ED188E890E0FCD081E062E038D18091C7
:1001C000BC009091BD0004D181E066E030D18BE8A5
:1001D00090E0EED081E068E02AD18091C00064E632
:1001E00004D290E0F5D080E06DE021D18EE890E07F
:1001F000DFD081E06DE01BD18091BB0090E0E8D0C2
:1002000080E065E014D182E990E0D2D080E06BE03C
:100210000ED182E990E0CCD081E065E008D182E99E
:1002200090E0C6D081E06BE002D182E990E0C0D0DE
:1002300080E06CE0FCD081E890E0BAD081E06CE036
:10024000F6D081E890E0B4D0089584E990E045D1FB
:1002500008950F931F9316DF0EDF01DF1ADF83E38C
:1002600090E020D188E981BF7894EBD080E867EAFC
:1002700070E0C8D066DF11E002E0B09903C01093CF
:10028000B50007C0B19903C00093B50002C0109239
:10029000B500999903C01093B0001BC0989903C092
:1002A0001093B10016C09A9903C01092B20011C009
:1002B0009B9903C01092B3000CC09C9B08C0109285
:1002C000B0001092B1001092B2001092B3001092E0
:1002D000B4008091C1009091C10081E09C3F08F47E
:1002E00080E08195880F880F981709F4AEDF809120
:1002F000C1008F3F11F61092C100BFCF8F9A8E9A26
:100300008D9ABF9A089580FF02C0C79A01C0C7980E
:1003100081FF02C0959A01C0959882FF02C0969A0B
:1003200001C0969883FF02C0979A08959798089500
:1003300086B3881F8827881F859982608699846084
:100340008799886008951F938F988E988D98BF988D
:10035000939A949AEDDF182F1295107F9498949A9F
:10036000E7DF9498812B1F9108959298ECDF089510
:100370001F93182FC3DF9398949A812F82958F70C3
:10038000C2DF9498949A812FBEDF9498EEDF87FDA8
:10039000FDCF1F9108959298EBDF0895929AE8DFC0
:1003A0000895982F9058983008F48770F7DF0895D3
:1003B000CF93DF93EC0106C0982F9058983008F443
:1003C0008770ECDF89918823B9F7DF91CF91089589
:1003D000DF93CF93CDB7DEB761970FB6F894DEBF4A
:1003E0000FBECDBFBE016F5F7F4F4AE050E009D125
:1003F000DFDF61960FB6F894DEBF0FBECDBFCF91A1
:10040000DF9108951F93CF93DF93EB0190E0877006
:1004100090700896880F880F880FBDDF18E08991CB
:10042000BDDF1150E1F7DF91CF911F910895813029
:1004300009F480E46058860FAEDF089581E0ABDFF9
:1004400008955CDF8A9A8C9A8B9A929894989398E4
:100450008FE295E70197F1F700C00000929893981A
:1004600080E351DF87E090E20197F1F700C00000E0
:1004700080E349DF87EC90E00197F1F700C00000CE
:1004800080E241DF87EC90E00197F1F700C00000C7
:1004900088E281DF88E07FDF8CE07DDF86E07BDF44
:1004A000CDDF089590BD89B98AB188618AB980B5D8
:1004B000866880BD579A08959091C4009F5F9F7091
:1004C0002091C5009217E1F3E92FF0E0EA53FF4FC6
:1004D00080839093C400559A0895CF93DF93EC01E5
:1004E00001C0EADF89918823E1F7DF91CF91089578
:1004F0000F931F93DF93CF93CDB7DEB761970FB6FE
:10050000F894DEBF0FBECDBF8E010F5F1F4FB80145
:100510004AE050E076D0C801E0DF61960FB6F8946B
:10052000DEBF0FBECDBFCF91DF911F910F91089518
:100530009091D6008091D700981769F08091D700EC
:100540008F5F8F718093D700E091D700F0E0E85281
:10055000FF4F8081089580E008951F920F920FB69B
:100560000F9211248F939F93EF93FF938CB1E0919F
:10057000D600EF5FEF719091D700E91731F0E0936B
:10058000D600F0E0E852FF4F8083FF91EF919F91FA
:100590008F910F900FBE0F901F9018951F920F9282
:1005A0000FB60F9211248F939F93EF93FF93909127
:1005B000C4008091C500981771F08091C5008F5FCD
:1005C0008F708093C500E091C500F0E0EA53FF4FC3
:1005D00080818CB901C05598FF91EF919F918F91C7
:1005E0000F900FBE0F901F901895991B79E004C0D3
:1005F000991F961708F0961B881F7A95C9F7809562
:100600000895FB019F01E8944230BCF04532ACF400
:100610004A3029F497FB1EF4909581959F4F642FE3
:1006200077271ED0805D8A330CF0895D8193CB01E2
:100630000097A9F716F45DE251931082C90100C03A
:10064000DC01FC01672F71917723E1F7329704C039
:100650007C916D9370836291AE17BF07C8F30895C4
:10066000AA1BBB1B51E107C0AA1FBB1FA617B707D8
:1006700010F0A61BB70B881F991F5A95A9F78095F4
:0C0680009095BC01CD010895F894FFCFC7
:10068C004D6563686174726F6E696B61004169528C
:10069C002C2067722E49560053454E530043004C94
:1006AC000020004D4F4445004954004C4E0053501F
:1006BC00440080000D0A23232323205265706F729F
:1006CC0074202323232300040404040404040400DE
:00000001FF
