:1000000012C02CC02BC056C029C028C027C026C093
:1000100025C024C023C027C347C320C01FC01EC0A3
:100020001DC01CC01BC011241FBECFE5D4E0DEBF25
:10003000CDBF10E0A0E6B0E0E8E9F7E002C005902F
:100040000D92A63BB107D9F710E0A6EBB0E001C0D6
:100050001D92A83FB107E1F70AD19CC3D1CF85B566
:10006000886085BD85B5866085BD84E283BD89B71E
:10007000806889BF089584B3807E84BB85B38F6117
:1000800085BB089587B38C7F87BB88B3836088BBAB
:10009000089587B38C6687BBC29A8DB180658DB990
:1000A0000895C6980895C69A08958FB9779BFECF94
:1000B0008FB108951F920F920FB60F9211242F93B4
:1000C0003F934F935F936F937F938F939F93AF93E0
:1000D000BF93CF93DF93EF93FF93E3DF8091C30050
:1000E000C82FD0E0E091C300F0E0EA54FF4F8081D8
:1000F000DCDFC454DF4F8883D6DF8091C3008530B6
:1001000030F48091C3008F5F8093C30002C01092CF
:10011000C3008091C2008F5F8093C200FF91EF9176
:10012000DF91CF91BF91AF919F918F917F916F910F
:100130005F914F913F912F910F900FBE0F901F90A5
:10014000189502D280E062E0F8D180E690E0B6D166
:1001500081E063E0F2D18DE690E0B0D10895F4D172
:1001600080E060E0EAD12091B60081E090E02130AB
:1001700011F080E090E0B2D180E061E0DED120912A
:10018000B70081E090E0213011F080E090E0A6D14E
:1001900080E062E0D2D12091B80081E090E021308F
:1001A00011F080E090E09AD180E063E0C6D1209128
:1001B000B90081E090E0213011F080E090E08ED134
:1001C00080E064E0BAD12091BA0081E090E0213073
:1001D00011F080E090E082D180E065E0AED18091C6
:1001E000BB00813039F08091BB00823031F482E075
:1001F00090E005C081E090E002C080E090E06ED128
:1002000080E067E09AD188E790E058D180E069E02B
:1002100094D18091BC0090E061D180E06BE08DD101
:100220008BE790E04BD180E06DE087D18091BD00FD
:1002300090E054D181E060E080D18091BE0090E0F8
:100240004DD181E063E079D18091BF0090E046D14B
:1002500081E066E072D18091C00090E03FD181E002
:1002600069E06BD18091C10090E038D10895FF9290
:100270000F931F9307DFFFDEF2DE0BDF83E390E0D7
:1002800097D188E981BF789462D180E86DEA70E007
:100290003FD157DF11E082E0F82E00E5B09903C0AE
:1002A0001093BB0007C0B19903C0F092BB0002C01D
:1002B0001092BB00989903C01093B6001BC0999987
:1002C00003C01093B70016C09A9903C01092B800EB
:1002D00011C09B9903C01092B9000CC09C9B08C030
:1002E0001092B6001092B7001092B8001092B900A8
:1002F0001092BA008091C200602FFDD1992319F4A9
:100300008091BC002CDF8091C2008091C2008F3FA1
:1003100029F61092C200C2CF17D180E060E00DD163
:100320008EE790E0CBD080E064E007D18091B6000A
:10033000813019F483E890E009C08091B7008130E2
:1003400019F485E890E002C087E890E0B7D080E03B
:1003500066E0F3D089E890E0B1D080E06AE0EDD0CB
:100360008091BD0090E0BAD081E060E0E6D08EE8F8
:1003700090E0A4D081E062E0E0D08091BF0090E006
:10038000ADD081E066E0D9D081E990E097D081E0FE
:1003900068E0D3D08091C00090E0A0D080E06DE014
:1003A000CCD084E990E08AD081E06DE0C6D0809125
:1003B000C10090E093D080E065E0BFD088E990E094
:1003C0007DD080E06BE0B9D088E990E077D081E023
:1003D00065E0B3D088E990E071D081E06BE0ADD00A
:1003E00088E990E06BD080E06CE0A7D087E890E0EF
:1003F00065D081E06CE0A1D087E890E05FD00895FF
:100400008AE990E0F0D008958F9A8E9A8D9ABF9ADB
:10041000089580FF02C0C79A01C0C79881FF02C03B
:10042000959A01C0959882FF02C0969A01C096984D
:1004300083FF02C0979A08959798089586B3881FFE
:100440008827881F8599826086998460879988604B
:1004500008951F938F988E988D98BF98939A949A29
:10046000EDDF182F1295107F9498949AE7DF9498F7
:10047000812B1F9108959298ECDF08951F93182FF8
:10048000C3DF9398949A812F82958F70C2DF9498DE
:10049000949A812FBEDF9498EEDF87FDFDCF1F91E8
:1004A00008959298EBDF0895929AE8DF0895982FC7
:1004B0009058983008F48770F7DF0895CF93DF9352
:1004C000EC0106C0982F9058983008F48770ECDF44
:1004D00089918823B9F7DF91CF910895DF93CF9366
:1004E000CDB7DEB761970FB6F894DEBF0FBECDBFB4
:1004F000BE016F5F7F4F4AE050E009D1DFDF6196B8
:100500000FB6F894DEBF0FBECDBFCF91DF91089537
:100510001F93CF93DF93EB0190E087709070089664
:10052000880F880F880FBDDF18E08991BDDF11505B
:10053000E1F7DF91CF911F910895813009F480E4B4
:100540006058860FAEDF089581E0ABDF08955CDF71
:100550008A9A8C9A8B9A9298949893988FE295E7BE
:100560000197F1F700C000009298939880E351DF63
:1005700087E090E20197F1F700C0000080E349DFD7
:1005800087EC90E00197F1F700C0000080E241DFC6
:1005900087EC90E00197F1F700C0000088E281DF6E
:1005A00088E07FDF8CE07DDF86E07BDFCDDF0895B4
:1005B00090BD89B98AB188618AB980B5866880BDE5
:1005C000579A08959091C4009F5F9F702091C50035
:1005D0009217E1F3E92FF0E0EA53FF4F8083909305
:1005E000C400559A0895CF93DF93EC0101C0EADF70
:1005F00089918823E1F7DF91CF9108950F931F939D
:10060000DF93CF93CDB7DEB761970FB6F894DEBF17
:100610000FBECDBF8E010F5F1F4FB8014AE050E003
:1006200076D0C801E0DF61960FB6F894DEBF0FBE4A
:10063000CDBFCF91DF911F910F9108959091D6007A
:100640008091D700981769F08091D7008F5F8F71E4
:100650008093D700E091D700F0E0E852FF4F80810F
:10066000089580E008951F920F920FB60F92112403
:100670008F939F93EF93FF938CB1E091D600EF5F40
:10068000EF719091D700E91731F0E093D600F0E0D8
:10069000E852FF4F8083FF91EF919F918F910F90D0
:1006A0000FBE0F901F9018951F920F920FB60F92CA
:1006B00011248F939F93EF93FF939091C4008091A7
:1006C000C500981771F08091C5008F5F8F7080937F
:1006D000C500E091C500F0E0EA53FF4F80818CB97E
:1006E00001C05598FF91EF919F918F910F900FBE90
:1006F0000F901F901895991B79E004C0991F9617C9
:1007000008F0961B881F7A95C9F780950895FB011C
:100710009F01E8944230BCF04532ACF44A3029F4F1
:1007200097FB1EF4909581959F4F642F77271ED0DD
:10073000805D8A330CF0895D8193CB010097A9F726
:1007400016F45DE251931082C90100C0DC01FC0186
:10075000672F71917723E1F7329704C07C916D93F5
:1007600070836291AE17BF07C8F30895AA1BBB1B25
:1007700051E107C0AA1FBB1FA617B70710F0A61BA1
:10078000B70B881F991F5A95A9F780959095BC01C2
:08079000CD010895F894FFCF9C
:100798004D6563686174726F6E696B61004169527F
:1007A8002C2067722E4956005354004D4F00534574
:1007B8004E530043004C0020004D4F44450049541F
:1007C800004C4E005350440080000D0A232323237D
:1007D800205265706F7274202323232300040404BD
:0607E800040404040400F7
:00000001FF
