:1000000012C02CC02BC056C029C028C027C026C093
:1000100025C024C023C00DC32DC320C01FC01EC0D7
:100020001DC01CC01BC011241FBECFE5D4E0DEBF25
:10003000CDBF10E0A0E6B0E0E4E6F7E002C0059036
:100040000D92A83CB107D9F711E0A8ECB0E001C0CF
:100050001D92AA30B107E1F760D182C3D1CF85B537
:10006000886085BD85B5866085BD84E283BD89B71E
:10007000806889BF089584B3807E84BB85B38F6117
:1000800085BB089587B38C7F87BB88B3836088BBAB
:10009000089587B38C6687BBC29A8DB180658DB990
:1000A0000895C6980895C69A08958FB9779BFECF94
:1000B0008FB108951F920F920FB60F9211242F93B4
:1000C0003F934F935F936F937F938F939F93AF93E0
:1000D000BF93CF93DF93EF93FF93E3DF8091D5003E
:1000E000C82FD0E0E091D500F0E0E853FF4F8081C9
:1000F000DCDFC253DF4F8883D6DF8091D5008530A7
:1001000030F48091D5008F5F8093D50002C01092AB
:10011000D5008091D4008F5F8093D400FF91EF9140
:10012000DF91CF91BF91AF919F918F917F916F910F
:100130005F914F913F912F910F900FBE0F901F90A5
:100140001895E8D180E062E0DED180E690E09CD1B5
:1001500081E063E0D8D18DE690E096D10895DAD1C0
:1001600080E060E0D0D12091C80081E090E02130B3
:1001700011F080E090E098D180E061E0C4D120915E
:10018000C90081E090E0213011F080E090E08CD156
:1001900080E062E0B8D12091CA0081E090E0213097
:1001A00011F080E090E080D180E063E0ACD120915C
:1001B000CB0081E090E0213011F080E090E074D13C
:1001C00080E064E0A0D12091CC0081E090E021307B
:1001D00011F080E090E068D180E065E094D18091FA
:1001E000CD00813039F08091CD00823031F482E051
:1001F00090E005C081E090E002C080E090E054D142
:1002000080E067E080D188E790E03ED180E069E05F
:100210007AD18091CE0090E047D180E06BE073D13D
:100220008BE790E031D180E06DE06DD18091CF001F
:1002300090E03AD181E060E066D18091D00090E01A
:1002400033D181E063E05FD18091D10090E02CD187
:1002500081E066E058D18091D20090E025D181E024
:1002600069E051D18091D30090E01ED1089552D120
:1002700080E060E048D18EE790E006D180E063E066
:1002800042D18091CF00813019F481E890E00DC017
:100290008091CF00823019F48DE890E006C0809103
:1002A000CF00833019F487E990E0EED081E060E080
:1002B0002AD18FE990E0E8D081E063E024D18091F9
:1002C000D10090E0F1D081E067E01DD183EA90E0B9
:1002D000DBD081E06AE017D18091D00090E0E4D0DB
:1002E00080E06FE010D18091CD00882319F087EA7B
:1002F00090E0CAD081E06FE006D18091C8008823E9
:1003000021F089EA90E0C0D008958091C900882347
:1003100019F08BEA90E0B8D00895FF920F931F93E5
:10032000B1DEA9DE9CDEB5DE83E390E027D188E96B
:1003300081BF7894F2D080E860EC70E0CFD001DF2C
:1003400011E082E0F82E00E5B09903C01093CD00D3
:1003500007C0B19903C0F092CD0002C01092CD0049
:10036000989903C01093C8001BC0999903C01093BB
:10037000C90016C09A9903C01092CA0011C09B9977
:1003800003C01092CB000CC09C9B08C01092C80008
:100390001092C9001092CA001092CB001092CC00AB
:1003A0008091D400602F8DD1992339F48091CE00B3
:1003B000813011F45CDF01C0C4DE8091D4008091F3
:1003C000D4008F3F09F61092D400BECF8DEA90E0A2
:1003D000F0D008958F9A8E9A8D9ABF9A089580FFD3
:1003E00002C0C79A01C0C79881FF02C0959A01C098
:1003F000959882FF02C0969A01C0969883FF02C02A
:10040000979A08959798089586B3881F8827881F1C
:1004100085998260869984608799886008951F9382
:100420008F988E988D98BF98939A949AEDDF182F95
:100430001295107F9498949AE7DF9498812B1F91DE
:1004400008959298ECDF08951F93182FC3DF9398B7
:10045000949A812F82958F70C2DF9498949A812FFD
:10046000BEDF9498EEDF87FDFDCF1F91089592982F
:10047000EBDF0895929AE8DF0895982F905898300E
:1004800008F48770F7DF0895CF93DF93EC0106C07F
:10049000982F9058983008F48770ECDF8991882362
:1004A000B9F7DF91CF910895DF93CF93CDB7DEB742
:1004B00061970FB6F894DEBF0FBECDBFBE016F5F70
:1004C0007F4F4AE050E009D1DFDF61960FB6F89424
:1004D000DEBF0FBECDBFCF91DF9108951F93CF93A5
:1004E000DF93EB0190E0877090700896880F880F7B
:1004F000880FBDDF18E08991BDDF1150E1F7DF9172
:10050000CF911F910895813009F480E46058860FDF
:10051000AEDF089581E0ABDF08955CDF8A9A8C9AA4
:100520008B9A9298949893988FE295E70197F1F7B8
:1005300000C000009298939880E351DF87E090E23A
:100540000197F1F700C0000080E349DF87EC90E0FD
:100550000197F1F700C0000080E241DF87EC90E0F6
:100560000197F1F700C0000088E281DF88E07FDFBB
:100570008CE07DDF86E07BDFCDDF089590BD89B91B
:100580008AB188618AB980B5866880BD579A089516
:100590009091D6009F5F9F702091D7009217E1F352
:1005A000E92FF0E0E852FF4F80839093D600559AF0
:1005B0000895CF93DF93EC0101C0EADF899188238E
:1005C000E1F7DF91CF9108950F931F93DF93CF93BE
:1005D000CDB7DEB761970FB6F894DEBF0FBECDBFC3
:1005E0008E010F5F1F4FB8014AE050E076D0C8017E
:1005F000E0DF61960FB6F894DEBF0FBECDBFCF919E
:10060000DF911F910F9108959091E8008091E9008A
:10061000981769F08091E9008F5F8F718093E900EE
:10062000E091E900F0E0E651FF4F8081089580E01D
:1006300008951F920F920FB60F9211248F939F93DC
:10064000EF93FF938CB1E091E800EF5FEF71909131
:10065000E900E91731F0E093E800F0E0E651FF4FE0
:100660008083FF91EF919F918F910F900FBE0F901C
:100670001F9018951F920F920FB60F9211248F930F
:100680009F93EF93FF939091D6008091D700981796
:1006900071F08091D7008F5F8F708093D700E091C9
:1006A000D700F0E0E852FF4F80818CB901C0559827
:1006B000FF91EF919F918F910F900FBE0F901F9020
:1006C0001895991B79E004C0991F961708F0961B9E
:1006D000881F7A95C9F780950895FB019F01E894DA
:1006E0004230BCF04532ACF44A3029F497FB1EF49A
:1006F000909581959F4F642F77271ED0805D8A3318
:100700000CF0895D8193CB010097A9F716F45DE2A7
:1007100051931082C90100C0DC01FC01672F719167
:100720007723E1F7329704C07C916D9370836291D7
:10073000AE17BF07C8F30895AA1BBB1B51E107C042
:10074000AA1FBB1FA617B70710F0A61BB70B881F61
:10075000991F5A95A9F780959095BC01CD010895F0
:04076000F894FFCF3B
:100764004D6563686174726F6E696B6100416952B3
:100774002C2067722E4956005354004D4F004F4EA3
:100784000050524F4752455353494E470052455625
:10079400455253494E47005455524E494E4700491D
:1007A400544500434F5500420043004C000D0A23BA
:1007B400232323205265706F727420232323230084
:0807C40004040404040404040D
:00000001FF
