:1000000012C02CC02BC052C029C028C027C026C097
:1000100025C024C023C0CAC2EAC220C0ABC01EC0D3
:100020001DC01CC01BC011241FBECFE5D4E0DEBF25
:10003000CDBF10E0A0E6B0E0E4E0F7E002C005903C
:100040000D92AC3CB107D9F711E0ACECB0E001C0C7
:100050001D92A031B107E1F750D152C3D1CF87B182
:10006000806C87B93D9A339A86B1856886B9369A8D
:10007000089585B5886085BD85B5866085BD84E2B7
:1000800083BD89B7806889BF089587B38C6687BBB5
:10009000C29A8DB180658DB90895C6980895C69AA3
:1000A00008958FB9779BFECF8FB108951F920F925D
:1000B0000FB60F9211242F933F934F935F936F933B
:1000C0007F938F939F93AF93BF93CF93DF93EF93E0
:1000D000FF93E3DF8091DA00C82FD0E0E091DA00EF
:1000E000F0E0E453FF4F8081DCDFCE52DF4F8883A6
:1000F000D6DF8091DA00853030F48091DA008F5FAE
:100100008093DA0002C01092DA008091D8008F5FED
:100110008093D800FF91EF91DF91CF91BF91AF9184
:100120009F918F917F916F915F914F913F912F910F
:100130000F900FBE0F901F901895982F95569D31D8
:1001400038F4E091D900F0E0E453FF4F81E009C0BA
:1001500087598B3340F4E091D900F0E0E453FF4F2E
:1001600082E080830895E091D900F0E0E453FF4FEE
:10017000108208951F920F920FB60F9211242F93A1
:100180003F934F935F936F937F938F939F93AF931F
:10019000BF93EF93FF9385B1D0DF87B19091D900E2
:1001A000807E890F87B98091D900843030F48091A6
:1001B000D9008F5F8093D90002C01092D900369A7F
:1001C000FF91EF91BF91AF919F918F917F916F912F
:1001D0005F914F913F912F910F900FBE0F901F9005
:1001E0001895CF93DF9353D180E060E049D180E64A
:1001F00090E007D180E062E043D18091D20090E0AE
:1002000010D180E065E03CD1C3E6D0E0CE01F9D06A
:1002100080E066E035D185E690E0F3D080E068E0EC
:100220002FD18091D30090E0FCD080E06BE028D10A
:10023000CE01E7D081E060E023D188E690E0E1D014
:1002400081E062E01DD18091D40090E0EAD081E0AD
:1002500066E016D18BE690E0D4D081E068E010D162
:100260008091D50090E0DDD081E06BE009D1CE0136
:10027000C8D080E06CE004D18EE690E0C2D081E08E
:100280006CE0FED09091D70084E6989FC0011124C5
:100290006FEF70E0DFD1CB014496C3D081E06FE017
:1002A000EFD085E2A7D0DF91CF91089582E790E06B
:1002B0003DD185E890E03AD18091D20090E041D1E3
:1002C00082E990E033D18091D30090E03AD18FE978
:1002D00090E02CD18091D40090E033D18CEA90E072
:1002E00025D18091D50090E02CD189EB90E01ED1F2
:1002F0008091D70090E025D108951F93BADEAFDE3C
:10030000C4DE83E390E0F7D088E981BF7894C2D05F
:1003100080E863EC70E09FD010E58091D800612FF9
:100320008DD1992309F45DDF9091D80081E09C3F45
:1003300008F480E08195880F880F981709F4B6DFDC
:100340008091D8008F3F49F71092D800E6CF8F9A5E
:100350008E9A8D9ABF9A089580FF02C0C79A01C0F5
:10036000C79881FF02C0959A01C0959882FF02C08C
:10037000969A01C0969883FF02C0979A089597981D
:10038000089586B3881F8827881F8599826086997B
:1003900084608799886008951F938F988E988D98B0
:1003A000BF98939A949AEDDF182F1295107F949826
:1003B000949AE7DF9498812B1F9108959298ECDF2F
:1003C00008951F93182FC3DF9398949A812F8295D5
:1003D0008F70C2DF9498949A812FBEDF9498EEDFDD
:1003E00087FDFDCF1F9108959298EBDF0895929AB3
:1003F000E8DF0895982F9058983008F48770F7DF59
:100400000895CF93DF93EC0106C0982F9058983051
:1004100008F48770ECDF89918823B9F7DF91CF91D9
:100420000895DF93CF93CDB7DEB761970FB6F894F9
:10043000DEBF0FBECDBFBE016F5F7F4F4AE050E011
:1004400030D1DFDF61960FB6F894DEBF0FBECDBFAF
:10045000CF91DF9108951F93CF93DF93EB0190E04D
:10046000877090700896880F880F880FBDDF18E09E
:100470008991BDDF1150E1F7DF91CF911F91089570
:10048000813009F480E46058860FAEDF089581E082
:10049000ABDF08955CDF8A9A8C9A8B9A9298949835
:1004A00093988FE295E70197F1F700C000009298CA
:1004B000939880E351DF87E090E20197F1F700C065
:1004C000000080E349DF87EC90E00197F1F700C07E
:1004D000000080E241DF87EC90E00197F1F700C077
:1004E000000088E281DF88E07FDF8CE07DDF86E04E
:1004F0007BDFCDDF089590BD89B98AB188618AB963
:1005000080B5866880BD579A08959091DC009F5F02
:100510009F702091DD009217E1F3E92FF0E0E252A5
:10052000FF4F80839093DC00559A0895CF93DF931B
:10053000EC0101C0EADF89918823E1F7DF91CF91D7
:1005400008950F931F93DF93CF93CDB7DEB76197D5
:100550000FB6F894DEBF0FBECDBF8E010F5F1F4FE9
:10056000B8014AE050E09DD0C801E0DF61960FB6C7
:10057000F894DEBF0FBECDBFCF91DF911F910F91D9
:1005800008959091EE008091EF00981769F08091A6
:10059000EF008F5F8F718093EF00E091EF00F0E04C
:1005A000E051FF4F8081089580E008951F920F92DF
:1005B0000FB60F9211248F939F93EF93FF938CB1FB
:1005C000E091EE00EF5FEF719091EF00E91731F0ED
:1005D000E093EE00F0E0E051FF4F8083FF91EF9158
:1005E0009F918F910F900FBE0F901F9018951F92A3
:1005F0000F920FB60F9211248F939F93EF93FF9357
:100600009091DC008091DD00981771F08091DD0001
:100610008F5F8F708093DD00E091DD00F0E0E252AB
:10062000FF4F80818CB901C05598FF91EF919F9148
:100630008F910F900FBE0F901F901895991B79E026
:1006400004C0991F961708F0961B881F7A95C9F762
:100650008095089597FB092E07260AD077FD04D0D0
:100660000CD006D000201AF4709561957F4F089544
:10067000F6F7909581959F4F0895AA1BBB1B51E1FA
:1006800007C0AA1FBB1FA617B70710F0A61BB70B02
:10069000881F991F5A95A9F780959095BC01CD01A7
:1006A0000895FB019F01E8944230BCF04532ACF460
:1006B0004A3029F497FB1EF4909581959F4F642F43
:1006C0007727DBDF805D8A330CF0895D8193CB0176
:1006D0000097A9F716F45DE251931082C90100C09A
:1006E000DC01FC01672F71917723E1F7329704C099
:1006F0007C916D9370836291AE17BF07C8F3089524
:04070000F894FFCF9B
:10070400313A008000323A00333A00343A00535010
:1007140044000D0A23232323205265706F72742032
:1007240023232323000D0A4472697665204A313A53
:1007340020000D0A4472697665204A323A20000D81
:100744000A44726976652044333A20000D0A4472E3
:10075400697665204A343A20000D0A537065656451
:0C0764003A200006090906000000000011
:00000001FF
