:1000000012C02CC02BC056C029C028C027C026C093
:1000100025C024C023C0A8C2C8C220C01FC01EC0A3
:100020001DC01CC01BC011241FBECFE5D4E0DEBF25
:10003000CDBF10E0A0E6B0E0EAE9F6E002C005902E
:100040000D92A83AB107D9F710E0A8EAB0E001C0D4
:100050001D92A23FB107E1F7FFD01DC3D1CF85B5F7
:10006000886085BD85B5866085BD84E283BD89B71E
:10007000806889BF089584B3807E84BB85B38F6117
:1000800085BB089587B38C7F87BB88B3836088BBAB
:10009000089587B38C6687BBC29A8DB180658DB990
:1000A0000895C6980895C69A08958FB9779BFECF94
:1000B0008FB108951F920F920FB60F9211242F93B4
:1000C0003F934F935F936F937F938F939F93AF93E0
:1000D000BF93CF93DF93EF93FF93E3DF8091BD0056
:1000E000C82FD0E0E091BD00F0E0E855FF4F8081DF
:1000F000DCDFC255DF4F8883D6DF8091BD008530BD
:1001000030F48091BD008F5F8093BD0002C01092DB
:10011000BD008091BC008F5F8093BC00FF91EF9188
:10012000DF91CF91BF91AF919F918F917F916F910F
:100130005F914F913F912F910F900FBE0F901F90A5
:10014000189583D180E062E079D180E690E037D1E4
:1001500081E063E073D18DE690E031D1089575D1EF
:1001600080E060E06BD188E790E029D180E064E036
:1001700065D18091A800813019F48DE790E009C025
:100180008091A900813019F48FE790E002C081E8E6
:1001900090E015D180E066E051D183E890E00FD186
:1001A00080E06AE04BD189E090E019D181E060E025
:1001B00045D188E890E003D181E062E03FD18091B1
:1001C000B4009091B5000BD181E066E037D18BE8A7
:1001D00090E0F5D081E068E031D18091BA00909153
:1001E000BB0064E670E014D2CB01F9D080E06DE092
:1001F00025D18EE890E0E3D081E06DE01FD18091C1
:10020000B30090E0ECD080E065E018D182E990E0A6
:10021000D6D080E06BE012D182E990E0D0D081E0CE
:1002200065E00CD182E990E0CAD081E06BE006D1B4
:1002300082E990E0C4D080E06CE000D182E990E0F7
:10024000BED081E06CE0FAD082E990E0B8D00895A9
:1002500084E990E049D10895FF920F931F9312DF34
:100260000ADFFDDE16DF83E390E023D188E981BF5A
:100270007894EED011E082E0F82E00E5999903C061
:100280001093A8001BC0989903C01093A90016C032
:100290009A9903C01092AA0011C09B9903C01092B2
:1002A000AB000CC09C9B08C01092A8001092A90043
:1002B0001092AA001092AB001092AC00B09903C04B
:1002C0001093AD0007C0B19903C0F092AD0002C019
:1002D0001092AD008091BC00602F8ED1992309F45B
:1002E0003EDF9091BC0081E09C3F08F480E0819566
:1002F000880F880F981709F4ABDF8091BC008F3FFF
:1003000009F0BCCF1092BC00B9CF8F9A8E9A8D9A0B
:10031000BF9A089580FF02C0C79A01C0C79881FFA5
:1003200002C0959A01C0959882FF02C0969A01C0BA
:10033000969883FF02C0979A08959798089586B378
:10034000881F8827881F859982608699846087998D
:10035000886008951F938F988E988D98BF98939A70
:10036000949AEDDF182F1295107F9498949AE7DFF6
:100370009498812B1F9108959298ECDF08951F9314
:10038000182FC3DF9398949A812F82958F70C2DFC4
:100390009498949A812FBEDF9498EEDF87FDFDCF6D
:1003A0001F9108959298EBDF0895929AE8DF0895DF
:1003B000982F9058983008F48770F7DF0895CF93FE
:1003C000DF93EC0106C0982F9058983008F487709E
:1003D000ECDF89918823B9F7DF91CF910895DF93FE
:1003E000CF93CDB7DEB761970FB6F894DEBF0FBEDF
:1003F000CDBFBE016F5F7F4F4AE050E01DD1DFDF10
:1004000061960FB6F894DEBF0FBECDBFCF91DF91DE
:1004100008951F93CF93DF93EB0190E08770907066
:100420000896880F880F880FBDDF18E08991BDDF1F
:100430001150E1F7DF91CF911F910895813009F4B8
:1004400080E46058860FAEDF089581E0ABDF089549
:100450005CDF8A9A8C9A8B9A9298949893988FE200
:1004600095E70197F1F700C000009298939880E318
:1004700051DF87E090E20197F1F700C0000080E3D0
:1004800049DF87EC90E00197F1F700C0000080E2BF
:1004900041DF87EC90E00197F1F700C0000088E2AF
:1004A00081DF88E07FDF8CE07DDF86E07BDFCDDFF2
:1004B000089590BD89B98AB188618AB980B5866886
:1004C00080BD579A08959091BE009F5F9F702091C4
:1004D000BF009217E1F3E92FF0E0E054FF4F808373
:1004E0009093BE00559A0895CF93DF93EC0101C01D
:1004F000EADF89918823E1F7DF91CF9108950F9387
:100500001F93DF93CF93CDB7DEB761970FB6F89403
:10051000DEBF0FBECDBF8E010F5F1F4FB8014AE097
:1005200050E08AD0C801E0DF61960FB6F894DEBFD4
:100530000FBECDBFCF91DF911F910F910895909184
:10054000D0008091D100981769F08091D1008F5F21
:100550008F718093D100E091D100F0E0EE52FF4F17
:100560008081089580E008951F920F920FB60F9238
:1005700011248F939F93EF93FF938CB1E091D00060
:10058000EF5FEF719091D100E91731F0E093D00067
:10059000F0E0EE52FF4F8083FF91EF919F918F919A
:1005A0000F900FBE0F901F9018951F920F920FB6CD
:1005B0000F9211248F939F93EF93FF939091BE001E
:1005C0008091BF00981771F08091BF008F5F8F708E
:1005D0008093BF00E091BF00F0E0E054FF4F8081C6
:1005E0008CB901C05598FF91EF919F918F910F9019
:1005F0000FBE0F901F901895991B79E004C0991FAA
:10060000961708F0961B881F7A95C9F7809508956C
:10061000AA1BBB1B51E107C0AA1FBB1FA617B70728
:1006200010F0A61BB70B881F991F5A95A9F7809544
:100630009095BC01CD010895FB019F01E8944230E3
:10064000BCF04532ACF44A3029F497FB1EF4909587
:1006500081959F4F642F7727DBDF805D8A330CF015
:10066000895D8193CB010097A9F716F45DE2519360
:100670001082C90100C0DC01FC01672F7191772352
:10068000E1F7329704C07C916D9370836291AE174D
:0A069000BF07C8F30895F894FFCFE8
:10069A004D6563686174726F6E696B61004169527E
:1006AA002C2067722E49560053454E530043004C86
:1006BA000020004D4F4445004954004C4E00535011
:1006CA0044007C000D0A23232323205265706F7295
:0806DA007420232323230000F8
:00000001FF
