:1000000012C02CC02BC048C029C028C027C026C0A1
:1000100025C024C023C059C279C220C01FC01EC041
:100020001DC01CC01BC011241FBECFE5D4E0DEBF25
:10003000CDBF10E0A0E6B0E0ECEFF5E002C0059027
:100040000D92AC3CB107D9F711E0ACECB0E001C0C7
:100050001D92AF30B107E1F7C3D0CEC2D1CF85B585
:10006000886085BD85B5866085BD84E283BD89B71E
:10007000806889BF089587B38C6687BBC29A8DB1AB
:1000800080658DB90895C6980895C69A08958FB968
:10009000779BFECF8FB108951F920F920FB60F92EC
:1000A00011242F933F934F935F936F937F938F937D
:1000B0009F93AF93BF93CF93DF93EF93FF93E3DFD0
:1000C0008091D900C82FD0E0E091D900F0E0E4534E
:1000D000FF4F8081DCDFCE52DF4F8883D6DF8091F7
:1000E000D900853030F48091D9008F5F8093D9009A
:1000F00002C01092D9008091D8008F5F8093D80001
:10010000FF91EF91DF91CF91BF91AF919F918F912F
:100110007F916F915F914F913F912F910F900FBE03
:100120000F901F901895CF93DF9340D180E060E04F
:1001300036D180E690E0F4D080E062E030D180916A
:10014000D20090E0FDD080E065E029D1C3E6D0E0A8
:10015000CE01E6D080E066E022D185E690E0E0D0F6
:1001600080E068E01CD18091D30090E0E9D080E08D
:100170006BE015D1CE01D4D081E060E010D188E6EB
:1001800090E0CED081E062E00AD18091D40090E08E
:10019000D7D081E066E003D18BE690E0C1D081E06A
:1001A00068E0FDD08091D50090E0CAD081E06BE09E
:1001B000F6D0CE01B5D080E06CE0F1D08EE690E0D4
:1001C000AFD081E06CE0EBD08091D70090E0B8D068
:1001D00081E06FE0E4D085E29CD0DF91CF9108957B
:1001E0001F933DDF48DF83E390E014D188E981BFAE
:1001F0007894DFD080E863EC70E0BCD010E58091AB
:10020000D800612FAAD1992309F48DDF8091D800FD
:100210008091D8008F3F99F71092D800F0CF82E7F5
:1002200090E013D185E890E010D18091D20090E069
:1002300017D182E990E009D18091D30090E010D1EC
:100240008FE990E002D18091D40090E009D18CEA4E
:1002500090E0FBD08091D50090E002D189EB90E056
:10026000F4D08091D70090E0FBD008958F9A8E9AB9
:100270008D9ABF9A089580FF02C0C79A01C0C7989F
:1002800081FF02C0959A01C0959882FF02C0969A9C
:1002900001C0969883FF02C0979A08959798089591
:1002A00086B3881F8827881F859982608699846015
:1002B0008799886008951F938F988E988D98BF981E
:1002C000939A949AEDDF182F1295107F9498949A30
:1002D000E7DF9498812B1F9108959298ECDF0895A1
:1002E0001F93182FC3DF9398949A812F82958F7054
:1002F000C2DF9498949A812FBEDF9498EEDF87FD39
:10030000FDCF1F9108959298EBDF0895929AE8DF50
:100310000895982F9058983008F48770F7DF089563
:10032000CF93DF93EC0106C0982F9058983008F4D3
:100330008770ECDF89918823B9F7DF91CF91089519
:10034000DF93CF93CDB7DEB761970FB6F894DEBFDA
:100350000FBECDBFBE016F5F7F4F4AE050E009D1B5
:10036000DFDF61960FB6F894DEBF0FBECDBFCF9131
:10037000DF9108951F93CF93DF93EB0190E0877097
:1003800090700896880F880F880FBDDF18E089915C
:10039000BDDF1150E1F7DF91CF911F9108958130BA
:1003A00009F480E46058860FAEDF089581E0ABDF8A
:1003B00008955CDF8A9A8C9A8B9A92989498939875
:1003C0008FE295E70197F1F700C0000092989398AB
:1003D00080E351DF87E090E20197F1F700C0000071
:1003E00080E349DF87EC90E00197F1F700C000005F
:1003F00080E241DF87EC90E00197F1F700C0000058
:1004000088E281DF88E07FDF8CE07DDF86E07BDFD4
:10041000CDDF089590BD89B98AB188618AB980B568
:10042000866880BD579A08959091DB009F5F9F700A
:100430002091DC009217E1F3E92FF0E0E352FF4F47
:1004400080839093DB00559A0895CF93DF93EC015E
:1004500001C0EADF89918823E1F7DF91CF91089508
:100460000F931F93DF93CF93CDB7DEB761970FB68E
:10047000F894DEBF0FBECDBF8E010F5F1F4FB801D6
:100480004AE050E076D0C801E0DF61960FB6F894FC
:10049000DEBF0FBECDBFCF91DF911F910F910895A9
:1004A0009091ED008091EE00981769F08091EE0038
:1004B0008F5F8F718093EE00E091EE00F0E0E151EC
:1004C000FF4F8081089580E008951F920F920FB62C
:1004D0000F9211248F939F93EF93FF938CB1E09130
:1004E000ED00EF5FEF719091EE00E91731F0E093CE
:1004F000ED00F0E0E151FF4F8083FF91EF919F917C
:100500008F910F900FBE0F901F9018951F920F9212
:100510000FB60F9211248F939F93EF93FF939091B7
:10052000DB008091DC00981771F08091DC008F5F18
:100530008F708093DC00E091DC00F0E0E352FF4F2D
:1005400080818CB901C05598FF91EF919F918F9157
:100550000F900FBE0F901F901895991B79E004C063
:10056000991F961708F0961B881F7A95C9F78095F2
:100570000895FB019F01E8944230BCF04532ACF491
:100580004A3029F497FB1EF4909581959F4F642F74
:1005900077271ED0805D8A330CF0895D8193CB0173
:1005A0000097A9F716F45DE251931082C90100C0CB
:1005B000DC01FC01672F71917723E1F7329704C0CA
:1005C0007C916D9370836291AE17BF07C8F3089555
:1005D000AA1BBB1B51E107C0AA1FBB1FA617B70769
:1005E00010F0A61BB70B881F991F5A95A9F7809585
:0C05F0009095BC01CD010895F894FFCF58
:1005FC00313A008000323A00333A00343A0053501A
:10060C0044000D0A23232323205265706F7274203B
:10061C0023232323000D0A4472697665204A313A5C
:10062C0020000D0A4472697665204A323A20000D8A
:10063C000A44726976652044333A20000D0A4472EC
:10064C00697665204A343A20000D0A53706565645A
:0C065C003A20000609090600000000001A
:00000001FF
