:1000000012C02CC02BC02AC029C028C027C026C0BF
:1000100025C024C03DC022C021C020C01FC01EC0BA
:100020001DC01CC01BC011241FBECFE5D4E0DEBF25
:10003000CDBF10E0A0E6B0E0ECE2F1E002C0059038
:100040000D92A636B107D9F710E0A6E6B0E001C0E0
:100050001D92AD36B107E1F75BD066C0D1CFDF931B
:10006000CF93CDB7DEB787E390E027E330E0F90127
:1000700020812061FC0120838DE290E02DE230E0C0
:10008000F9012081206CFC012083CF91DF9108953C
:100090001F920F920FB60F9211242F933F938F93BD
:1000A0009F93EF93FF93DF93CF93CDB7DEB780910C
:1000B0006C00882F90E02FE230E0F90120818A590E
:1000C0009F4FFC01208380916C00853030F480913B
:1000D0006C008F5F80936C0002C010926C008FE206
:1000E00090E020916C00222F30E0205A3F4FF90120
:1000F0002081FC012083CF91DF91FF91EF919F91AF
:100100008F913F912F910F900FBE0F901F901895D8
:10011000DF93CF93CDB7DEB7A2DF789480916000F4
:0C0120008F5F80936000FACFF894FFCF4F
:06012C00313233B4000083
:00000001FF
